:100000000C9434000C9451000C9451000C94510049
:100010000C9453000C9451000C9451000C9451001A
:100020000C9451000C9451000C9451000C9451000C
:100030000C9451000C9451000C9451000C945100FC
:100040000C9451000C9451000C9451000C945100EC
:100050000C9451000C9451000C9451000C945100DC
:100060000C9451000C94510011241FBECFEFD8E026
:10007000DEBFCDBF11E0A0E0B1E0EAEBF3E002C0EB
:1000800005900D92AA31B107D9F721E0AAE1B1E0BC
:1000900001C01D92AE31B207E1F70E941A010C9423
:1000A000DB010C9400001F920F920FB60F921124E7
:1000B0008F939F93EF93FF9380911A0190911B016F
:1000C000019781F410928100E4E8F0E08081918151
:1000D00090931D0180931C011182108210921B01CC
:1000E00010921A0180911A0190911B01892B59F4E9
:1000F000E1E8F0E080818160808381E090E090938E
:100100001B0180931A01FF91EF919F918F910F90A6
:100110000FBE0F901F9018952C982D988FE193E0AB
:100120000197F1F700C000002B9A8FE99FE001973B
:10013000F1F700C000002B988FE99FE00197F1F7DD
:1001400000C0000081E090E0089588E38BB90E9430
:100150008C0087EC90E00197F1F700C0000081E08F
:100160008BB90E948C008FE39FE10197F1F700C0EB
:1001700000008EE08BB90E948C0080E88BB90E9451
:100180008C0087EC90E00197F1F700C0000086E05A
:100190008BB987EC90E00197F1F700C000008CE18B
:1001A0008BB90E948C0087EC90E00197F1F700C0BA
:1001B000000081E090E008952C9A2D988FE193E063
:1001C0000197F1F700C000002B9A8FE99FE001979B
:1001D000F1F700C000002B988FE99FE00197F1F73D
:1001E00000C0000081E090E00895EF92FF920F932D
:1001F0001F93CF93DF938C017C01C0E0D0E007C058
:10020000F70181917F018BB90E94DC002196F801F2
:1002100001900020E9F73197E01BF10BCE17DF07C3
:1002200078F381E090E0DF91CF911F910F91FF90E3
:10023000EF900895CF93DF93CDB7DEB760970FB6F9
:10024000F894DEBF0FBECDBF8FEF84B98AB917B85F
:100250002FEF89E698E1215080409040E1F700C0FF
:100260000000E8E6F0E0808182608083ECE6F0E068
:100270008081806280830E94A50078940F2EF0EA2E
:10028000EF2EF3E0FF2EF02D00E810EC28982AE185
:100290002A95F1F700C0289A80E58A95F1F7289809
:1002A0009FEF20E782E0915020408040E1F700C0BE
:1002B000000080911C0190911D01B7010E947E01F8
:1002C000CB014AE0BE016F5F7F4F0E94A6010BB9D0
:1002D0000E948C0080E091E00E94F5001BB90E9412
:1002E0008C008CE091E00E94F500CE0101960E9406
:1002F000F50087E191E00E94F500C8CF97FB072E3B
:1003000016F4009407D077FD09D00E94920107FCF3
:1003100005D03EF4909581959F4F08957095619515
:100320007F4F0895AA1BBB1B51E107C0AA1FBB1F2B
:10033000A617B70710F0A61BB70B881F991F5A9571
:10034000A9F780959095BC01CD010895BB274A304F
:1003500031F4992322F4BDE2909581959F4F0C943E
:10036000B201BB27FB015527AA27880F991FAA1F97
:10037000A41710F0A41B83955051B9F7A05DAA33C0
:1003800008F0A95DA193009779F7B111B19311928B
:10039000CB010C94CB01DC01FC01672F7191772319
:1003A000E1F7329704C07C916D9370836291AE1730
:0A03B000BF07C8F30895F894FFCFCB
:1003BA004F4E532050524F4A4543540041465354DE
:0A03CA00414E44203D2000636D0009
:00000001FF
