:100000000C9434000C9451000C9451000C94510049
:100010000C947F000C9451000C9451000C945100EE
:100020000C9451000C9451000C9451000C9451000C
:100030000C9451000C9451000C9451000C945100FC
:100040000C9451000C9451000C9451000C945100EC
:100050000C9451000C9453000C9451000C945100DA
:100060000C9451000C94510011241FBECFEFD8E026
:10007000DEBFCDBF11E0A0E0B1E0ECE7F1E002C0EF
:1000800005900D92A030B107D9F721E0A0E0B1E0D2
:1000900001C01D92A430B207E1F70E94B7000C9492
:1000A000BC000C9400001F920F920FB60F92112407
:1000B0008F939F9380917800909179008D3D910569
:1000C00040F415B89F918F910F900FBE0F901F9025
:1000D000189581E085B99F918F910F900FBE0F9079
:1000E0001F901895209A80917C00816480937C00F9
:1000F00080917A008E6E80937A007894FFCF1F9261
:100100000F920FB60F9211248F939F93809100014D
:10011000909101010197C1F080910001909101013E
:10012000892B59F48091810081608093810081E066
:1001300090E090930101809300019F918F910F9027
:100140000FBE0F901F90189510928100809184002F
:100150009091850090930301809302011092850095
:10016000109284001092010110920001D5CF0E94DC
:0C017000720080E090E00895F894FFCF4A
:00000001FF
