S0100000726F626F744361722E73726563D8
S11300000C9434000C9451000C9451000C94510045
S11300100C9453000C9451000C9451000C94510016
S11300200C9451000C9451000C9451000C94510008
S11300300C9451000C9451000C9451000C945100F8
S11300400C9451000C9451000C9451000C945100E8
S11300500C9451000C9451000C9451000C945100D8
S11300600C9451000C94510011241FBECFEFD8E022
S1130070DEBFCDBF11E0A0E0B1E0EAE5F1E002C0EF
S113008005900D92A030B107D9F721E0A0E0B1E0CE
S113009001C01D92A430B207E1F70E94A6000C949F
S11300A0AB000C9400001F920F920FB60F92112414
S11300B08F939F93EF93FF9380910001909101019F
S11300C0019781F410928100E4E8F0E0808191814D
S11300D09093030180930201118210821092010116
S11300E0109200018091000190910101892B59F433
S11300F0E1E8F0E080818160808381E090E090938A
S1130100010180930001FF91EF919F918F910F90D6
S11301100FBE0F901F901895259A249A239A229A1D
S11301203898309902C02D9A01C02D98319902C097
S11301302C9A01C02C98329902C02B9A01C02B989A
S1130140339902C02A9AEDCF2A98EBCF0E948C00F3
S10D015080E090E00895F894FFCFDA
S9030000FC
