:100000000C9434000C9451000C9451000C94510049
:100010000C947C000C9451000C9451000C945100F1
:100020000C9451000C9451000C9451000C9451000C
:100030000C9451000C9451000C9451000C945100FC
:100040000C9451000C9451000C9451000C945100EC
:100050000C9451000C9453000C9451000C945100DA
:100060000C9451000C94510011241FBECFEFD8E026
:10007000DEBFCDBF11E0A0E0B1E0E8E7F1E002C0F3
:1000800005900D92A030B107D9F721E0A0E0B1E0D2
:1000900001C01D92A430B207E1F70E94B5000C9494
:1000A000BA000C9400001F920F920FB60F92112409
:1000B0008F939F9380917800909179008C34910573
:1000C00018F080E285B901C015B89F918F910F900B
:1000D0000FBE0F901F901895ECE7F0E080818164CF
:1000E0008083EAE7F0E080818E6E808378940895C3
:1000F000259A0E946C00FFCF1F920F920FB60F92AD
:1001000011248F939F93EF93FF938091000190911F
:100110000101019781F410928100E4E8F0E0808110
:1001200091819093030180930201118210821092B9
:100130000101109200018091000190910101892B31
:1001400059F4E1E8F0E080818160808381E090E013
:100150009093010180930001FF91EF919F918F9106
:100160000F900FBE0F901F9018950E94780080E0AE
:0801700090E00895F894FFCF20
:00000001FF
